:020000040800F2
:10000000580B0020090100081F110008D50F000837
:100010001D110008B10100084D210008000000007A
:10002000000000000000000000000000491500086A
:10003000750A000800000000D9120008F11B000832
:100040002301000823010008230100082301000800
:100050002301000823010008A50B00082301000864
:1000600023010008230100082301000823010008E0
:1000700023010008230100082301000823010008D0
:1000800023010008230100082301000823010008C0
:10009000292100082301000823010008230100088A
:1000A00023010008230100082301000823010008A0
:1000B0002301000823010008230100082301000890
:1000C0002301000823010008230100082301000880
:1000D0002301000823010008230100082301000870
:1000E0002301000823010008711F000823010008F4
:1000F00023010008DFF80CD000F018F80048004792
:100100009D210008580B00200648804706480047FC
:10011000FEE7FEE7FEE7FEE7FEE7FEE7FEE7FEE7B7
:10012000FEE7FEE7F51B0008F5000008064C074D4A
:1001300006E0E06840F0010394E8070098471034B7
:10014000AC42F6D3FFF7DAFF6024000890240008E1
:1001500070B58C1810F8015B15F0070301D110F889
:10016000013B2A1106D110F8012B03E010F8016BB6
:1001700001F8016B5B1EF9D12B0705D40023521E39
:100180000DD401F8013BFAE710F8013BCB1A921CA1
:1001900003E013F8015B01F8015B521EF9D5A1429F
:1001A000D8D3002070BD40F2010CC2F2000C6047B1
:1001B000FEE7C1B2000A40EA012070472DE9F84F7E
:1001C0000020ADF80000DFF834A14BF6BF7648F20E
:1001D00080074A4D4A4C40F68F7848F60F7BDFF88F
:1001E00024910AF1440A31E00888474A10F00F00D0
:1001F000107034D0454901EB8001D1F8002CADF8E6
:100200000020BDF8002012040BD5D1F8002C02EA22
:100210000802C1F8002C3E4901EB800050F8040CA4
:100220008047BDF80000000610D5374837490078F0
:1002300001EB8001D1F8002C02EA0B02C1F8002C7E
:10024000344901EB800050F8040C8047DAF80000D4
:100250004946A9F800000004C6D4BDE8F88F286814
:100260002080208800F030006080208800F440501A
:1002700020802868304080F4005080F0200038430F
:1002800028600888C006286815D400EA0B0028609A
:1002900000F0A2FE26E02188890401D580F40050F8
:1002A0006188C90626D46188890601D580F02000BE
:1002B00038432860D1E7ADF80000BDF80000000524
:1002C00006D5286800EA0800286001F067FA09E00E
:1002D000BDF800000004B9D5286800EA08002860CD
:1002E00000F0C6FF286821883040C904D3D580F4C7
:1002F0008050D0E780F01000D5E70000005C00409F
:10030000FA020020E6010020E80200200050004030
:100310000C020020F0010020810008480844D0F8B9
:10032000001C490409D5D0F8001C48F68F72114012
:100330004CF280021143C0F8001C7047005000408E
:10034000810008480844D0F8001C490609D5D0F8B7
:10035000001C48F68F72114048F2C0021143C0F8E9
:10036000001C704700500040810006480144D1F84D
:10037000000C48F68F62104048F280021043C1F82A
:10038000000C70470050004005480068C00705D0C9
:1003900003480449083001600349016070470000C8
:1003A000043C0240EFCDAB89050403021CB50121DA
:1003B000022000F0CBFF0121084600F0EBFF0020F7
:1003C0008DF8040001208DF8070040030090694675
:1003D000014800F061FD1CBD000402404FF40051D3
:1003E000014800F0B8BD000000040240164910B5F5
:1003F0000A68117801F07F01212922D1134B0228CC
:10040000197806D001280AD0052810D0032810D06A
:1004100017E0022901D0092913D10D490AE0022968
:1004200001D005290DD1032018700A4902E00A49BC
:1004300000E00A4929B100209161508288470020DC
:1004400010BD022010BD0000EC020020E8000020DA
:10045000491C00082D070008E10D0008FD0D0008EB
:10046000014901F061BA000040020020014901F099
:100470005BBA00003802002005490968C9780829DC
:1004800001D900207047034A02EBC10101F04CBAC8
:10049000EC02002078020020032901D8022801D9AB
:1004A000022070470020704770B529490968097813
:1004B00001F07F01212912D1284B0022254E264927
:1004C0001D78012807D00224022813D0042817D051
:1004D000062828D003E0052D03D0022D01D00220EC
:1004E00070BD0120B060062018704A708A70CA7012
:1004F00008712BE01C704A708A70CA700C7125E07C
:100500000A2D09D00A2018700E230B704A708A70C9
:10051000CA7008714A7119E01C700A704A708A70BA
:10052000CA700C71F6E7022D07D0032D05D0052DFA
:1005300003D0062D01D0092D08D11C700A704A7015
:100540008A70CA700C714A7132607260002070BD8E
:10055000EC02002028020020F4000020E800002027
:1005600070B520490020214A88721F491268204C2A
:10057000C979517220601E485038016848F68F12C0
:10058000114041F400710160016848F6BF721140EA
:1005900081F0200148F2800211430160216810209F
:1005A000144D090405EBD131134E8860002016F874
:1005B0002C1F00F0FDFF21685020090405EBD1310C
:1005C00008603178002001F025F80020FFF7CCFE0C
:1005D000002001F00DF8002000F0C6FF07490120BF
:1005E000086070BD380700200C010020EC020020DC
:1005F000505C00400060004048020020C80200201B
:100600000348807A002802D002490520086070471C
:1006100038070020C8020020014904200860704704
:10062000C80200207047000070B5214840780328B8
:1006300021D1204D2878042805D007281BD1BDE8FA
:10064000704000F053B81C4C21462068496898B1AE
:10065000012806D98002E268A0F50060104400F08D
:100660004DFD002060601549032220602A700A7148
:1006700048708870C87070BD11480278002AF0D0A8
:1006800046788378212A06EB0323C678007903EBAA
:10069000064303EB006007D0412AE2D10529E0D1EF
:1006A000E06000F0F1FCDCE70529DAD1E060D8E792
:1006B00038070020E800002028020020F400002075
:1006C0001803002070B5074D00F06CFC0024AC72DC
:1006D00000F026FE01F02AFD01F062FC02480460F1
:1006E00070BD000038070020C80200200C4900201F
:1006F0000C4A886018310968097D4B070A4906D5FC
:10070000062313700B7148708870C87070470823F7
:1007100013700B7148708870C87000F0A7BE00009D
:1007200028020020E8000020F40000200E4910B547
:10073000CC788A780D4B04EB02221A60CA798C7946
:1007400004EB02225A600A4C498A03232370094CA5
:10075000521A92B2237110B10748084410BD0748DD
:1007600000680282002010BD380700202802002007
:10077000E8000020F400002018030020EC02002014
:100780002DE9F047DFF89480254F4FF03009D8F875
:10079000001001F11005088A0E7A08B9042E04D061
:1007A000AC88A04215D8042614E01E48017801291F
:1007B00003D00726102038802BE01B4A0021126846
:1007C0001A4B120403EBD2325160A7F8009001706B
:1007D0001FE00226844200D90446A96820468847C3
:1007E0008246002000F0D0FB01462246504601F030
:1007F000AFFC2146002000F00DFF2888001B288058
:10080000688820446880A7F8009009494FF4405058
:100810000880D8F800000672BDE8F087EC020020DE
:10082000FC020020E4020020505C00400060004018
:10083000FA0200202DE9F047224EDFF88C803027A5
:10084000356835F8100FA968A9B100B3AC888442A7
:1008500000D904462046884781462888001B288006
:10086000688820446880002000F07EFB0146224614
:10087000484600F021FD288848B114494FF4405003
:1008800008800021084600F0C5FEA8F800702888FE
:10089000A988884201D3032001E020B105203168F6
:1008A0000872BDE8F0873168062008720849002008
:1008B0000968084A090402EBD1314860A8F80070C1
:1008C000EFE70000EC020020FC020020FA0200200A
:1008D000505C004000600040F8B55D4C5D4D09265D
:1008E0002068002729684278062A05D0AAB1082A7C
:1008F0004DD00A2A50D06BE00278520668D1807839
:10090000012804D0022804D0032804D060E0C9697B
:1009100056E0096A54E0496A52E04288B2BBC28894
:10092000022A55D102798ABB0278530601D1838805
:1009300033B102F07F02012A04D0022A0CD047E032
:1009400045493DE08A69407900219047F0B9206827
:10095000807A0028F4D13BE0417901F00F0001F0EA
:1009600070020B063D4901EB8001D1F8001C03D554
:10097000C1F30111090102E0C1F301310903384B50
:100980001B78834224D90AB90029D9D120E0007804
:1009900040061DD1334913E0027802F07F02012A9C
:1009A00016D1827AA2B1428892B9027982B9C288FC
:1009B000012A0DD18A6940790021904740B92A491E
:1009C00031B120684782816100208847002006E01D
:1009D00029682068096940788847032813D021686E
:1009E0000A8AA2F57F43FF3B0BD002280ED06AB1E2
:1009F0000878000626D5C888009082420AD9088265
:100A000018E00E72F8BD20680672F8BD4FF00800BD
:100A10000872F8BD0ED22868144B90F82C00824260
:100A200001D21F7006E0B2FBF0F400FB142008B9FD
:100A300001201870286890F82C008882BDE8F840E2
:100A4000FFF79EBE03200872094900030880F8BD25
:100A5000EC020020F00200206D1900080050004058
:100A6000A00200200119000845190008E402002036
:100A7000FA0200207047000010B511A001F010FC30
:100A800010A001F00DFC1FA001F00AFC1EA001F057
:100A900007FC26A001F004FC26A001F001FC2BA01D
:100AA00001F0FEFB2D2001F0E3FB2BA001F0F8FB91
:100AB0001EA001F0F5FBBDE810402AA001F0F0BB3C
:100AC0000D0A00002A2A2A2A2A2A2A2A2A2A2A2A17
:100AD0002A2A2A2A2A2A2A2A2A2A2A2A2A2A2A2A76
:100AE0002A2A2A2A2A2A2A2A2A2A2A2A2A2A2A2A66
:100AF0002A2A2A2A2A2A2A2A2A2A2A2A2A2A0D0A93
:100B0000000000002A0D0A002A202020202020209A
:100B100020202041524D494C4120524543454956E1
:100B20004552205553422049415020000D0A2A0DBC
:100B30000A0000002A2020202020202020202042FF
:100B400075696C6420646174653A000041756720C2
:100B5000203820323031360031353A30313A3338AE
:100B6000000000002A2A2A2A2A2A2A2A2A2A2A2A8D
:100B70002A2A2A2A2A2A2A2A2A2A2A2A2A2A2A2AD5
:100B80002A2A2A2A2A2A2A2A2A2A2A2A2A2A2A2AC5
:100B90002A2A2A2A2A2A2A2A2A2A2A2A2A2A0D0AF2
:100BA0000D0A000010B5012000F018F800280CD044
:100BB00006480068407A800602D5012000F06AFCF1
:100BC000BDE81040012000F003B810BDEC02002089
:100BD000014908607047000014040140064A0146BC
:100BE00000201268044B0A4014331B680B4202D0E9
:100BF000002A00D0012070470004014030B51A4996
:100C00008379026853B30B6893430B600A1D136822
:100C10000468A343136002790A44136804682343F9
:100C20001360114A083213680468A3431360131D4C
:100C30001C680568AC431C604479102C05D0214425
:100C40000A68006802430A6030BD116804682143E5
:100C50001160196800680143196030BD00790844CB
:100C600001689143016030BD000401400149086002
:100C700070470000183C024070B505464FF400462E
:100C8000304600F08FF8042815D10B4C206840F452
:100C900000702060206840F008002060002028607C
:100CA000304600F07FF8216821F0080121602168BA
:100CB00021F40071216070BD043C02400849042009
:100CC0000A68D20701D0012070470A68D20501D511
:100CD00002207047096811F4F05FFAD003207047D2
:100CE000183C024010B504464FF42060FFF7BEFFE9
:100CF0002046FFF7C1FF002010BD0020704770475D
:100D00002DE9F0431C4CA1B08A0727460AD04FF6C4
:100D1000FC73FF250B400A461B1D01E0BD54521C0D
:100D20009342FBD86A46430606D020F07F0301E0D9
:100D300020CB20C28342FBD307EB81064FF0000893
:100D40000F4420ADA74213D94146AA4206D2A6427B
:100D500002D908CC08C2F8E702C2F6E720F07F000B
:100D600081466946FFF71FFA09F180006A46E9E704
:100D700021B00020BDE8F08318030020064800B52C
:100D80000068800707D5FFF7FFFA034803490C30D6
:100D900001600349016000BD043C0240BFAE9D8C70
:100DA0001615141308B5034604208DF80000FFF74C
:100DB00085FF8DF8000004E0FFF780FF8DF800004C
:100DC0005B1E9DF80000012801D013B104E0002B48
:100DD000F2D105208DF800009DF8000008BD00004C
:100DE00008B10448704704490120096808820020BE
:100DF00070470000E8000020EC02002070B50446B7
:100E00002048002220490578204B032D02D0062DD2
:100E10002FD117E05D689DB1042202701B480A7152
:100E20001968C06819B91A490978412905D0164AC4
:100E30005FF0010100F038F91BE0134A0021F9E7E7
:100E4000052311E09B68012B01D033B111E007238A
:100E500003700B710120487009E00C4B18331B68BC
:100E60001B7D5B0705D5022303700B714A708A70E6
:100E7000CA700CB1044870BD064906200968088292
:100E8000002070BDE8000020F400002028020020AF
:100E900018030020EC020020F0B5002301240327F2
:100EA0000D6804FA03F21540954240D1D0F800C015
:100EB0005E0007FA06F52CEA050CC0F800C091F8B0
:100EC00004C0D0F800E00CFA06FC4CEA0E0CC0F8A6
:100ED00000C091F804C0BCF1010F02D0BCF1020FB8
:100EE0001DD1D0F808C02CEA050CC0F808C091F854
:100EF00005C0D0F808E00CFA06FC4CEA0E0CC0F86D
:100F000008C0B0F804C02CEA020CA0F804C0B0F885
:100F100004C08A799A404CEA020CA0F804C0C26866
:100F2000AA43C260CA79C568B2402A43C2605B1C4A
:100F3000102BB5D3F0BD4B07DB0E9A40C90810B596
:100F400000EB8100016A0F249C40A1430162016A09
:100F50001143016210BD02460020128A0A4200D0ED
:100F600001207047018370470549096889B201EB88
:100F7000C000044901EB4000008980B270470000C6
:100F8000505C0040006000400449096889B201EBF0
:100F9000C000034931F8100080B27047505C004037
:100FA00000600040094810B5D0E91414406E0818DC
:100FB0000BD00822064900F03DF8054920460422DE
:100FC000BDE81040103100F035B810BD0000F81F2A
:100FD00067010020FEE7000010B5134C2068017A7D
:100FE000022904D0042902D0062905D015E0FFF714
:100FF000C7FB2068007A11E04178052909D1017802
:10100000490606D1C07800F0AFFA08480068006AC7
:101010008047074800688068804708202168087278
:10102000BDE8104000F05AB9EC020020F4020020A4
:10103000F0020020F0B500230A24302537261F4691
:1010400011E000BFB4EB107F02D905EB107C01E08A
:1010500006EB107C01F813C001EB430C00015B1C94
:101060008CF80170DBB29342ECD3F0BD0448817A76
:10107000044809B1052100E00121016000F0BABD7A
:1010800038070020C802002000F07C41B1F1006F59
:1010900001D0012070470349014A0A60FFF722BED0
:1010A000E50C0008D4000020C0F3816301F00100CA
:1010B000064901EB830111F81030537031F810002C
:1010C000000A90700020D070704700004C24000887
:1010D00010B5FFF712FE002010BD000000F07C42AA
:1010E000B2F1006F01D000207047034A014B9360BA
:1010F000FFF705BEFF0C0008D400002000F07C4282
:10110000B2F1006F01D001207047034A014B5360D8
:10111000FFF7F6BD010D0008D4000020FEE7704780
:101120007047000030B50F22C47801780123FCB16C
:10113000144C246801F1E02104F4E064C4F5E06497
:10114000C4F30724C4F10405E2404478AC40857838
:10115000154025432A0181F80024007800F01F0182
:101160008B404009800000F1E020C0F8003130BD24
:1011700001F01F0083404809800000F1E020C0F822
:10118000803130BD0CED00E002490843024908609F
:10119000704700000000FA050CED00E070B52F4D1F
:1011A0002868017844784A0606D001F07F000128BB
:1011B00028D002282BD035E0092C06D0052C07D0EA
:1011C000032C0ED0012C14D02CE000F019FC28E0E8
:1011D000C1787F292ED8817861BB818851BB807A04
:1011E00027E0C17801291DD18088D8B900F024FCFE
:1011F00017E0C178012915D1818899B9407A800614
:101200000AD40FE00B2C0DD100F06CFC09E0012C8E
:1012100002D0032C03D005E000F0F4FA01E000F066
:101220001DFC58B10E4920460968496988470328C2
:1012300002D018B108200DE009200BE0094A062071
:1012400000211268084B120403EBD2325160074AA6
:10125000302111802968087270BD0000EC02002066
:10126000F0020020505C004000600040FC020020C2
:1012700010B50F4C2068007A022811D004280FD036
:10128000032804D0052802D0072805D008E0FFF77E
:10129000D1FA2068007A04E006480068C0688047F8
:1012A000082021680872BDE8104000F017B800005F
:1012B000EC020020F0020020064B521C520803EB07
:1012C000410105D031F8043B20F8023B521EF9D110
:1012D0007047000000600040704700000C4810B5E7
:1012E00090F82C10002000F063F90A480068007A9A
:1012F000082802D0092809D006E007494FF4805099
:101300000880064910200880002010BD012010BD73
:1013100048020020EC020020FA020020FC0200201B
:1013200010B5012000F020FE0648012101600021D7
:10133000054A0160031D19604FF4E05111800160FE
:10134000002010BD405C0040F8020020044A002943
:10135000116801D0014300E0814311607047000033
:101360001C380240044A0029116801D0014300E002
:10137000814311607047000024380240044A00296C
:10138000116801D0014300E0814311607047000003
:1013900018380240044A0029116801D0014300E0D6
:1013A000814311607047000020380240044A002940
:1013B000116801D0014300E08143116070470000D3
:1013C0001438024030B5254A1168A2F1040411F026
:1013D0000C034FF4004105D0042B09D0082B09D091
:1013E0000C2B09D02368C3F342335B1C994018E0EF
:1013F0001B4916E01B4914E01168136801F47011D1
:10140000194C03F4400304EB91410978012404EBE7
:101410009353146814F4803F1DD0124C6143B1FB08
:10142000F3F1016011680F2303EA11110E4B093328
:101430005C5C0168E14041601468072505EA1424FA
:101440001C5D21FA04F48460126805EAD2229A5CD9
:10145000D140C16030BD024CE0E7000008380240D6
:101460000024F40000127A00FE020020002000F0A8
:101470007BFDBFF34F8F05480168054A01F4E06129
:1014800011430160BFF34F8FFEE700000CED00E059
:101490000400FA052DE9F041214C072800D0207006
:1014A00022781F4D0627052104261E48062A0BD246
:1014B000DFE802F0030C11161E27686810B12170D6
:1014C000BDE8F08100F030F82770F9E700F02CF863
:1014D0002670012022E00220607003202070EFE7D8
:1014E0006078401E607060780028E9D12670E7E7D8
:1014F000026892B242F01002026021700A2060700D
:10150000DEE76178491E617061780029D8D10168F1
:1015100089B221F010010160277000206860CFE7D8
:10152000D0020020405C004010B5064C206880B21C
:1015300020F004002060FFF799FD4FF43F40206049
:1015400010BD0000405C00407047000005490028C5
:10155000486802D040F0010001E020F0010048603E
:101560007047000000000140F0B50E490E4D48F6EE
:101570008F770B78002148F2800C0BE0CEB205EBA0
:101580008604D4F8002C3A40324342EA0C02C4F8F4
:10159000002C491C9942F1D3044940F080000860B6
:1015A000F0BD0000A0020020005000404C5C004054
:1015B0000D4A12683E2992B202EBC0000B4A02EBC0
:1015C000400209D94809C90601D1401E80B24FF432
:1015D000004141EA802004E04808C90700D0401CCF
:1015E0008002106070470000505C00400C600040BA
:1015F000810007480144D1F8000C4BF68F7210406F
:1016000080F4405048F280021043C1F8000C70474B
:1016100000500040044A126892B202EBC000034A34
:1016200002EB400041607047505C004000600040A9
:1016300082000A480244D2F8000C48F6BF731840F2
:10164000CB0601D580F01000890601D580F020007E
:1016500048F280010843C2F8000C70470050004077
:101660000CB500202C49019000900A6842F48032A9
:101670000A604FF4A0630A6802F400320092019AF3
:10168000521C0192009A12B9019A9A42F3D10A6847
:1016900092033FD5012000902048026842F00402E6
:1016A0000260026842F002020260026842F0010237
:1016B000026019482430026842F080520260C2146D
:1016C000174802604268D206FCD41348083002680A
:1016D00002600268026002680260026822F47D0211
:1016E0000260026842F4110202600A6842F08072ED
:1016F0000A600A689201FCD5016821F003010160CB
:10170000016841F0030101600168C1F3810103290F
:10171000FAD10CBD00900CBD00380240003C0240E4
:10172000007000407CB501210220FFF70FFE402031
:10173000009003208DF8050001248DF8044000205E
:101740008DF80600114D8DF8070069462846FFF711
:10175000A3FB40212846FFF705FC01210846FFF7BF
:1017600019FEFFF70BFBFFF7B3FC012000F0FCFBB9
:10177000A5042846FFF72CFA054908200D6048719A
:101780008C710846FFF73AFA7CBD00000008024061
:10179000E00000200121C805FFF7E4BD70B5164840
:1017A0000068174D0004C10B14480144098989B22F
:1017B00000EB41042868017A09290FD021780170D3
:1017C00061784170A088FEF7F4FC29684880208980
:1017D000FEF7EFFC29688880A089C880286801216D
:1017E0000172C08828B1FFF777F8BDE87040FFF7B5
:1017F00075BDFFF7D3FCF8E7505C00400060004087
:10180000EC0200202DE9F04138480068017811F021
:101810007F0102D0022905D066E0417A01F0DF01A4
:1018200041724EE0418800295ED10179F1BB4179D6
:10183000304D21F080040A0605EB84022C4BD2F8CF
:10184000002C03D5C2F30112120102E0C2F30132EF
:1018500012031E782346A64246D93AB3807A28B3AB
:1018600008064FEA84000ED52844D0F8000CC0F3D7
:101870000110012821D11846FEF762FD20463021D3
:10188000FFF7D6FE19E04619D6F8000CC0F3013078
:10189000012812D14BF68F7748F28008A4B1184680
:1018A000FEF73AFDD6F8000C384000E01CE080F46A
:1018B000405040EA0800C6F8000C0F480068406934
:1018C00080470020BDE8F0810C4890F82C100020E3
:1018D000FFF76EFED5F8000C384080F4405040EA27
:1018E0000800C5F8000CE8E70220EBE7EC02002056
:1018F000A002002000500040F40200204802002016
:1019000010B5074C30B10748006800688047206870
:101910000A3010BD216801200882002010BD00009F
:10192000EC020020F4020020054A13685A8A10B124
:101930000868104470478888801A18820020704711
:10194000EC02002010B5074C30B1074800688068F1
:10195000804720680C3010BD2168012008820020DB
:1019600010BD0000EC020020F4020020204910B558
:10197000096860B11F48002202800A7853060AD025
:1019800002F07F02012A16D0022A16D001E00220BE
:101990000882002010BD497A8A06027802D542F0FA
:1019A000020201E002F0FD0249060270D1B211D438
:1019B00001F0FE0110E00F4810BD4A79110713062F
:1019C0000D4A02EB9161D1F8001C07D5C1F301115A
:1019D00006E0017841F00101017003E0C1F301313B
:1019E0000129F6D00548006800698047E3E7000058
:1019F000EC020020E602002000500040F40200202B
:101A00000A4810B500680A4AC1785278914203D852
:101A100082780AB982880AB1022010BD8172054815
:101A2000006840688047002010BD0000EC020020E4
:101A3000A0020020F4020020064810B50068417A98
:101A400041F02001417204480068C06980470020CD
:101A500010BD0000EC020020F402002070B51D480B
:101A60001D4D0368597921F0800005EB80000C06BC
:101A7000D0F8004C21F0800203D5C4F301142401F6
:101A800002E0C4F301342403144D2D78954210D99B
:101A90005A8872B96CB19A7A5AB10906D0F8001C0A
:101AA00048F2800207D548F6BF73194081F0100153
:101AB00006E0022070BD4BF68F73194081F480510F
:101AC0001143C0F8001C0648006880698047002068
:101AD00070BD0000EC02002000500040A002002079
:101AE000F402002010B50E4C0E4A20681268C1782E
:101AF00092694079904721688A7A22B118B90879A9
:101B000008B9887808B1022010BD07480068C0688D
:101B1000804720684179C172C1780173002010BDEF
:101B2000EC020020F0020020F4020020F8B52B495E
:101B3000002000900A682A4B2A4C92B203EB8005E1
:101B4000D5F8005CADB244F82050401C0828F5D30D
:101B500042F48060086040F00100086020F0010558
:101B60000D601E4A121D10684005FCD54FF6FF306F
:101B70001060002054F8206003EB8007B6B2C7F86D
:101B8000006C401C0828F5D345F008000860086880
:101B900080B240F004000860134B18680090186889
:101BA00020F0030040F0010018601048046844F081
:101BB000040404601468E40401D430BF09E04EF664
:101BC000FF7414600A6892B222F008020A60009959
:101BD0001960016821F004010160F8BD405C00401B
:101BE00000500040180700200070004010ED00E099
:101BF00070470000104810B5016841F48071016021
:101C00000D4908310A680D4B1A400A6002680C4BF6
:101C10001A400260026822F480220260086820F400
:101C20007D000860091D00200860FFF719FD0549C7
:101C30004FF00060086010BD003802400CC0FF8803
:101C4000FEFFFEEE08ED00E02DE9F04706462A48CB
:101C50002A4CDFF8AC90C27881782B4B12EB01272D
:101C60002760C1798079274A00EB01216160D9F8AA
:101C700000804FF0090C4FF00000B8F8125016D059
:101C8000012F32D983F800C082F804C050709070E0
:101C9000D070B802E268A0F500601044FFF71EFAA9
:101CA000A188491B89B2DEB12844BDE8F087032929
:101CB00002D90221197001E083F800C0197811716E
:101CC000507012499070D0700870212048704120E7
:101CD00088700EB10846E8E70320A8F8100002E07B
:101CE000D9F8000001820020DFE70F21197011717F
:101CF00050709070D070F6E738070020280200205E
:101D0000EC020020F4000020E8000020180300206E
:101D100010B5064C2021204600F0C4F80028F9D068
:101D2000204600F019F900F07F0010BD0038014096
:101D300070B5012186B00846FFF708FB0121880332
:101D4000FFF728FB244D284600F072F802208DF89A
:101D5000040003208DF8050000248DF806400120C2
:101D60008DF8070040021D4E009069463046FFF78F
:101D700093F82815009069463046FFF78DF8072242
:101D800009213046FFF7D7F807220A213046FFF72E
:101D9000D2F84FF4E1300290ADF810400C20ADF8CD
:101DA0000C40ADF81200ADF80E40ADF8144002A999
:101DB000284600F07FF80121284600F02EF8402147
:101DC000284600F027F807490548086007490648F3
:101DD000086006B070BD00000038014000000240FD
:101DE000F11D0008D8020020111D0008E0020020AB
:101DF00070B5074C05464021204600F053F80028F6
:101E0000F9D029462046BDE8704000F0A9B800008E
:101E100000380140C943018070470029818902D000
:101E200041F4005101E021F400518181704700002C
:101E3000174910B588420AD101218C032046FFF7CB
:101E4000B5FA2046BDE810400021FFF7AFBA1149AE
:101E5000884202D101214C0410E00F49884202D18E
:101E600001218C040AE00D49884202D10121CC04F1
:101E700004E00B4988420AD101210C052046FFF7F6
:101E80007DFA2046BDE810400021FFF777BA10BD6B
:101E9000003801400044004000480040004C004031
:101EA000005000400246002012880A4200D0012063
:101EB000704700007FB50446008A0D4620F440516B
:101EC000E88808432082A08941F20C618843A988F0
:101ED0002A8911436A8902431143A181A08A20F40F
:101EE0004071A8890843A0826846FFF76BFA194839
:101EF000844201D1039800E00298A189090400EB13
:101F0000C00101EB0010296801D5490000E08900FB
:101F1000B0FBF1F06422B0FBF2F109010B096FF0A4
:101F200018056B4300EB8300A3891D044FF03203B7
:101F300006D503EBC000B0FBF2F000F0070005E0AF
:101F400003EB0010B0FBF2F000F00F00084320811B
:101F50007FBD0000003801408088C0F30800704752
:101F6000C1F308018180704700B10120FFF7EEBA8C
:101F70004FF48020FEF72CBE06480549022201607E
:101F80000A72064A0449C0E90112086800470000C5
:101F900038070020EC02002048020020A4020020A4
:101FA00038B54FF4A060FFF7EFF814208DF800006B
:101FB00002208DF8010000248DF8024001258DF8E3
:101FC00003506846FFF7AEF82A208DF800008DF820
:101FD00001408DF803506846FFF7A4F838BD0000B3
:101FE0002DE9F0414A4E88B000243068494D6880A0
:101FF0006888494F39880840000401D5FEF7DEF8AB
:10200000688839884FF6FF380840400504D5C6F87F
:1020100000804248406880476988388801408904C8
:1020200002D54DF6FF71316069880140C80405D5BD
:102030004EF6FF7030600020FFF72CFA6888398870
:10204000084000050BD53648007810B1FFF76EFD4B
:1020500002E00220FFF71EFA4FF2FF70306069883D
:1020600038880140890505D54FF6FF513160297840
:10207000491C297069880140C80545D54FF6FF60A5
:1020800030602348001D00684FF00001000437D580
:102090006868401C68606868032832D91C48001FC3
:1020A000026812072DD4026892B2AA601D4A6B46DC
:1020B00002EB8407D7F8007CBFB243F82470641C9D
:1020C000082CF5D3AC6844F00104AC60AC68A4B251
:1020D0000460AC6824F00104AC60AC68A4B2046095
:1020E00030684005FCD5C6F80080002053F8204039
:1020F00002EB8006A4B2C6F8004C401C0828F5D3B9
:1021000069600720FFF7C6F908B0BDE8F08100005C
:10211000445C0040E4010020F80200204802002056
:10212000CC02002000500040FFF75ABF05490020B4
:10213000086005494FF43F4008800249091F0860C4
:1021400000207047445C0040F8020020FEE70000D9
:10215000094B10B5521C520803EB41010AD000BFD5
:1021600010F8013B521E10F8014B43EA042321F8FA
:10217000043BF5D110BD00000060004002E008C83B
:10218000121F08C1002AFAD170477047002001E0F1
:1021900001C1121F002AFBD170470000FEF706F9AB
:1021A000FFF7C6FDFEF768FCFEF718F90546014685
:1021B00015A000F053F81A4CB5B11A4D28681A4909
:1021C0000840B0F1005F0FD118A000F069F841F2AB
:1021D00070710220401C8842FCD36868A060606077
:1021E000296881F30888804717A000F059F80C4946
:1021F0000A200C31207008700871FFF793FAFFF77E
:10220000C9FAFFF7B9FEFEE74446552062757474BB
:102210006F6E2073746174653A2564200D0A0000A6
:10222000E8000020003000080000FE2F4A756D70A5
:1022300020746F2075736572206170706C696361C2
:1022400074696F6E200D0A00456E746572204446F5
:1022500055206D6F6465200D0A0000000FB410B5A5
:1022600003A9029800F026F810BC5DF814FB0000EA
:1022700010B504460A2802D10D20FFF7F9FF0749DF
:102280004A681AB102F8014B4A6010BD096800297A
:10229000FBD02046BDE8104008470000D8020020CF
:1022A00010B5044602E0641CFFF7E2FF2078002826
:1022B000F9D110BD2DE9FF5F8A4605464FEA0D09A9
:1022C00015F8010B00286FD0252802D0FFF7D0FFAA
:1022D000F6E715F8010B4FF00008302802D02D2842
:1022E00002D005E0012000E00220804615F8010B35
:1022F000002606E006EB860100EB410615F8010B0F
:10230000303EA0F130010929F4D96C2801D04C28C5
:1023100003D115F8010B48F00408002844D0024608
:10232000612801D3203AD2B24F2A3ED006DC422A9D
:1023300038D0432A33D0442AC8D138E0532A0FD0AA
:10234000552A34D0582AC1D15FF010035FEA487192
:1023500001D4442A2DD05AF8041B442A2BD02FE054
:102360005AF8047B002400E0641C385D0028FBD18F
:1023700002E02020FFF77CFF5FEA887003D420464C
:10238000641CB042F5D33846FFF78AFF02E02020F4
:10239000FFF76EFF2046641CB04291D2F7E71AF8AF
:1023A000040B93E70223D1E74EE00823CEE70A238C
:1023B000CCE75AF8041B002902DA494248F0080821
:1023C00000244F46B1FBF3F203FB1212B1FBF3F111
:1023D000D2B2092A05D9782816D04FF0070C6244EA
:1023E000D2B230323A55641C09B1102CEAD35FEAFC
:1023F000087003D52D2009F80400641C27465FEA05
:10240000C87004D0302003E04FF0270CE7E720200D
:10241000834602E05846FFF72BFF5FEA887003D43B
:1024200038467F1CB042F5D3641E19F80400FFF74C
:102430001FFF002CF8D102E02020FFF719FF3846DB
:102440007F1CB042A9D2F7E7BDE8FF9FB80B14008C
:10245000E803190064006800E8031900E8032D0090
:102460009024000800000020D40000007C21000817
:1024700064250008D4000020440200005001000838
:102480008826000818030020400800008C2100085E
:102490002DE9F0474FF0E0280E46D8F8081007461F
:1024A000002541F00101C8F808104FF400494846E2
:1024B00000F03AF8042819D1104C206840F48060EC
:1024C0002060206840F00800206001CE47F8250019
:1024D0006D1C202DF9D3484600F026F8216821F024
:1024E00008012160216821F480612160D8F808206A
:1024F00022F00102C8F80820BDE8F087043C024041
:10250000084904200A68D20701D0012070470A68F0
:10251000D20501D502207047096811F4F05FFAD0A6
:1025200003207047183C024038B5044604208DF85B
:102530000000FFF7E5FF8DF8000004E0FFF7E0FF83
:102540008DF80000641E9DF80000012801D014B130
:1025500004E0002CF2D105208DF800009DF8000069
:1025600038BD000001261312013201164083041108
:10257000DF1009020102030109021B13010135C02A
:102580003209042009FE01020409210BFF100B048B
:102590001A01040309042603531254124D1269123E
:1025A000631272126F12651A6C0412633A740E3A57
:1025B0006E1812735A142612331232122012441259
:1025C0004612559A1A14E1146203401A493C1A74CF
:1025D0004A1A72081A61541A20341A6C0A12731AB1
:1025E000680C1220122F12301A78041A380489024B
:1025F000122F1A34121A2A5212351A362612611A5A
:102600002C121A360489140212671321110A320897
:1026100004D112302308FA332012130C0133201B8B
:1026200013C506140861051B0825081A290413EDB3
:10263000031408A9041B0899041A6D041A61041AEA
:1026400079044132401A273832041A2B0832261AEC
:10265000510832141A6508321A1A7F0832624B0187
:1026600001B41A015409169C1A191C41192B012F87
:10267000380A030406080C101820303F2C0203040B
:0826800004150607080900001B
:04000005080000F5FA
:00000001FF
