:020000040800F2
:103000002804002009310008DF310008DB31000806
:10301000DD31000851310008793600080000000059
:103020000000000000000000000000000133000864
:103030005331000800000000F5310008C9330008D2
:103040002331000823310008233100082331000810
:103050002331000823310008233100082331000800
:1030600023310008233100082331000823310008F0
:1030700023310008233100082331000823310008E0
:1030800023310008233100082331000823310008D0
:1030900023310008233100082331000823310008C0
:1030A00023310008233100082331000823310008B0
:1030B00023310008233100082331000823310008A0
:1030C0002331000823310008233100082331000890
:1030D0002331000823310008233100082331000880
:1030E0002331000823310008233100082331000870
:1030F00023310008DFF80CD000F018F80048004732
:1031000099360008280400200648804706480047F2
:10311000FEE7FEE7FEE7FEE7FEE7FEE7FEE7FEE787
:10312000FEE7FEE7CD330008F5300008064C074DFA
:1031300006E0E06840F0010394E807009847103487
:10314000AC42F6D3FFF7DAFFB4380008D4380008F1
:10315000FEE77047F0B5002301244FF0030E00BFD7
:103160000D6804FA03F21540954222D106685D000D
:103170000EFA05FC0F7926EA0C06AF4037430760CC
:103180000E79012E01D0022E0CD186684F7926EAE5
:103190000C06AF4037438760868896438A799A4009
:1031A00032438280C668CA7926EA0C06AA403243B6
:1031B000C2605B1C102BD3D3F0BD4B07DB0E9A40D3
:1031C000C90810B500EB8100016A0F249C40A1439F
:1031D0000162016A1143016210BDFEE7FEE770471C
:1031E000024A1140014302480160704780FFFF1FFF
:1031F00008ED00E070470000044A0029116801D082
:10320000014300E081431160704700001C38024018
:10321000044A0029116801D0014300E08143116094
:103220007047000018380240044A0029116801D094
:10323000014300E0814311607047000020380240E4
:10324000044A0029116801D0014300E08143116064
:10325000704700001438024030B5254A1168A2F1C9
:10326000040411F00C034FF4004105D0042B09D0E5
:10327000082B09D00C2B09D02368C3F342335B1C05
:10328000994018E01B4916E01B4914E011681368C7
:1032900001F47011194C03F4400304EB91410978D7
:1032A000012404EB9353146814F4803F1DD0124C96
:1032B0006143B1FBF3F1016011680F2303EA1111BF
:1032C0000E4B09335C5C0168E140416014680725DE
:1032D00005EA14241C5D21FA04F48460126805EAEE
:1032E000D2229A5CD140C16030BD024CE0E70000C0
:1032F000083802400024F40000127A000C0000207C
:10330000704700000CB500202C49019000900A681D
:1033100042F480320A604FF4A0430A6802F400329B
:103320000092019A521C0192009A12B9019A9A4293
:10333000F3D10A6892033FD501200090204802682B
:1033400042F004020260026842F002020260026877
:1033500042F00102026019482430026842F08052B3
:103360000260C214174802604268D206FCD41348B7
:103370000830026802600268026002680260026847
:1033800022F47D020260026842F4110202600A68BF
:1033900042F080720A600A689201FCD5016821F04F
:1033A00003010160016841F0030101600168C1F39C
:1033B00081010329FAD10CBD00900CBD00380240F8
:1033C000003C02400070004070470000104810B5FB
:1033D000016841F4807101600D4908310A680D4BA4
:1033E0001A400A6002680C4B1A400260026822F41C
:1033F00080220260086820F47D000860091D00201A
:103400000860FFF77FFF05494FF00060086010BDBE
:10341000003802400CC0FF88FEFFFEEE08ED00E021
:1034200010B5064C2021204600F0C4F80028F9D041
:10343000204600F019F900F07F0010BD003801406F
:1034400070B5012186B00846FFF7D6FE012188033A
:10345000FFF7EAFE244D284600F072F802208DF8AE
:10346000040003208DF8050000248DF8064001209B
:103470008DF8070040021D4E009069463046FFF768
:1034800069FE2815009069463046FFF763FE072263
:1034900009213046FFF791FE07220A213046FFF747
:1034A0008CFE4FF4E1300290ADF810400C20ADF8E6
:1034B0000C40ADF81200ADF80E40ADF8144002A972
:1034C000284600F07FF80121284600F02EF8402120
:1034D000284600F027F807490548086007490648CC
:1034E000086006B070BD00000038014000000240D6
:1034F00001350008000000202134000808000020E9
:1035000070B5074C05464021204600F053F80028CE
:10351000F9D029462046BDE8704000F0A9B8000067
:1035200000380140C943018070470029818902D0D9
:1035300041F4005101E021F4005181817047000005
:10354000174910B588420AD101218C032046FFF7A4
:1035500077FE2046BDE810400021FFF771BE1149FB
:10356000884202D101214C0410E00F49884202D167
:1035700001218C040AE00D49884202D10121CC04CA
:1035800004E00B4988420AD101210C052046FFF7CF
:103590003FFE2046BDE810400021FFF739BE10BDB8
:1035A000003801400044004000480040004C00400A
:1035B000005000400246002012880A4200D001203C
:1035C000704700007FB50446008A0D4620F4405144
:1035D000E88808432082A08941F20C618843A988C9
:1035E0002A8911436A8902431143A181A08A20F4E8
:1035F0004071A8890843A0826846FFF72DFE19484C
:10360000844201D1039800E00298A189090400EBEB
:10361000C00101EB0010296801D5490000E08900D4
:10362000B0FBF1F06422B0FBF2F109010B096FF07D
:1036300018056B4300EB8300A3891D044FF0320390
:1036400006D503EBC000B0FBF2F000F0070005E088
:1036500003EB0010B0FBF2F000F00F0008432081F4
:103660007FBD0000003801408088C0F3080070472B
:10367000C1F3080181807047FEE702E008C8121F0D
:1036800008C1002AFAD170477047002001E001C14B
:10369000121F002AFBD170474FF440514FF00060D9
:1036A000FFF79EFDFFF7CCFE01A000F00BF8FEE750
:1036B000686168612C20796F7520617265206F6B7D
:1036C000210D0A000FB410B503A9029800F026F8E6
:1036D00010BC5DF814FB000010B504460A2802D1A6
:1036E0000D20FFF7F9FF07494A681AB102F8014BAC
:1036F0004A6010BD09680029FBD02046BDE8104093
:10370000084700000000002010B5044602E0641CD9
:10371000FFF7E2FF20780028F9D110BD2DE9FF5F07
:103720008A4605464FEA0D0915F8010B00286FD0AF
:10373000252802D0FFF7D0FFF6E715F8010B4FF070
:103740000008302802D02D2802D005E0012000E03A
:103750000220804615F8010B002606E006EB8601E4
:1037600000EB410615F8010B303EA0F130010929AC
:10377000F4D96C2801D04C2803D115F8010B48F07E
:103780000408002844D00246612801D3203AD2B26E
:103790004F2A3ED006DC422A38D0432A33D0442A6E
:1037A000C8D138E0532A0FD0552A34D0582AC1D175
:1037B0005FF010035FEA487101D4442A2DD05AF813
:1037C000041B442A2BD02FE05AF8047B002400E08D
:1037D000641C385D0028FBD102E02020FFF77CFF4D
:1037E0005FEA887003D42046641CB042F5D33846A3
:1037F000FFF78AFF02E02020FFF76EFF2046641CDF
:10380000B04291D2F7E71AF8040B93E70223D1E70D
:103810004EE00823CEE70A23CCE75AF8041B002920
:1038200002DA494248F0080800244F46B1FBF3F29F
:1038300003FB1212B1FBF3F1D2B2092A05D97828A1
:1038400016D04FF0070C6244D2B230323A55641CA5
:1038500009B1102CEAD35FEA087003D52D2009F8CE
:103860000400641C27465FEAC87004D0302003E0DF
:103870004FF0270CE7E72020834602E05846FFF789
:103880002BFF5FEA887003D438467F1CB042F5D323
:10389000641E19F80400FFF71FFF002CF8D102E0A6
:1038A0002020FFF719FF38467F1CB042A9D2F7E766
:1038B000BDE8FF9FD4380008000000202800000069
:1038C0007A360008FC3800082800002000040000B8
:1038D0008A36000800000000000000000000000020
:1038E000030406080C101820300000000001020339
:0C38F000040102030406070809000000A0
:04000005080030F5CA
:00000001FF
